:10000000001000201D040000190400001904000065
:10001000190400001904000019040000190400006C
:10002000190400001904000019040000013B00003D
:100030001904000019040000913B0000F53B00008A
:10004000190400001904000019040000190400003C
:10005000190400001904000019040000190400002C
:100060002503000019040000190400001904000011
:10007000952500001904000019040000190400006F
:1000800019040000190400001904000019040000FC
:1000900019040000190400001904000019040000EC
:1000A00019040000190400001904000019040000DC
:1000B00019040000190400001904000019040000CC
:1000C00019040000190400001904000019040000BC
:1000D00019040000190400001904000019040000AC
:1000E000190400001904000019040000190400009C
:1000F000190400001904000019040000190400008C
:10010000190400001904000019040000190400007B
:10011000190400001904000019040000190400006B
:10012000190400001904000019040000190400005B
:10013000190400001904000019040000190400004B
:1001400010B5054C237833B9044B13B1044800E0D3
:1001500000BF0123237010BDAC1000200000000080
:10016000B447000008B5034B1BB10349034800E046
:1001700000BF08BD00000000B0100020B447000020
:10018000154B002B08BF134B9D46A3F5803A002169
:100190008B460F461348144A121A04F0B0F80F4B5E
:1001A000002B00D098470E4B002B00D09847002022
:1001B000002104000D000D48002802D00C4800E08A
:1001C00000BF04F06DF82000290000F07DF804F075
:1001D00053F800BF000008000010002000000000DD
:1001E00000000000AC100020983600200000000045
:1001F000000000007047000008B5074C204600F0E2
:1002000085F9642002F0B0FF204600F082F96420F6
:1002100002F0AAFFF2E700BFC0430000012130B5A1
:10022000234A85B0084601F00DFC0121252000F08D
:10023000B3FB0E220021684604F061F869461D48B0
:1002400001F0EEFA252000F015FCBDF80240013463
:10025000B0FBF4F44FF47A60B4FBF0F4013CB4F575
:10026000803F04D340F26741134800F027FA114D54
:100270002B6BDB0704D440F269410F4800F01EFAF3
:100280004FF48072EC61AB690C4C43F00103AB613D
:100290000B4B1A60702283F808230123EB60094D91
:1002A0002946012003F0A2F9204600F035F9F7E7CE
:1002B0004043000000C004404A430000D84300000F
:1002C00000E100E090D0030007B502F087F9FFF7E6
:1002D00091FF0E4B4FF48C72019302230C49009353
:1002E0000C48002302F006FD0B4B4FF42F720193D4
:1002F00003230A4900930A48002302F0FBFC02F0A2
:100300007AF9002003B05DF804FB00BFC81000209C
:10031000AC430000F9010000CC100020B543000000
:100320001D02000007B542F214020C4B59699950A6
:10033000002302A941F8043D094B186803F088F92D
:10034000019B3BB14FF08052064B1A60BFF34F8FB9
:10035000BFF36F8F03B05DF804FB00BF00C0044023
:10036000CC10002004ED00E008B50521802000F04D
:10037000D5FD09214FF4C06000F0D0FD09214FF4F4
:10038000F06000F0CBFD09213E2000F0C7FD0921FF
:100390002D2000F0C3FD002008BD0000104B10B55B
:1003A0001B68C3F30743012B10D10E4B4FF480227F
:1003B000596E41F2640049034FF0040458BF42F201
:1003C00064011A500848046058BF5A5001F080FA7E
:1003D000FFF7CAFF01F08CFABDE8104001F002BB44
:1003E0000080E00F008000402020014002F052BD5C
:1003F00000F004B801F08CBE7047704708B504489F
:1004000000F081F8BDE80840024800F07CB800BF69
:10041000C0430000D8430000FEE7000008B500F02C
:1004200013F8064A064B07498B4201D3FFF7A8FE93
:1004300052F8040F43F8040BF6E700BFB84700007A
:1004400000100020AC100020044B054A9A60D3F83D
:10045000882042F47002C3F88820704700ED00E065
:1004600000000000084B1B6F03F00703022B04D0B1
:10047000032B05D0012B05D0FEE7044B186870470D
:10048000034BFBE703487047008000400C1000203E
:1004900010100020002D310108B5FFF7E3FF054BD8
:1004A0001B6FC3F303330133B0FBF3F0024B18604F
:1004B00008BD00BF008000400810002000487047C1
:1004C00000B4C404014B1868704700BF101000202E
:1004D000014B1868704700BF0C10002000207047C7
:1004E00000487047002D31014FF4004070474FF431
:1004F0007A707047014B1868704700BF14100020D5
:10050000002303607047D0E9000318478368006840
:100510001847C36800681847036900681847000057
:1005200038B50D460446D8B101281CD002281CD08D
:1005300003280CBF0F230023EB40DB0704D440F259
:10054000E1310B4800F0BAF83020012142F21003EB
:10055000604300F18040A94000F57030C15038BDC3
:1005600040F2FF13E8E71F23E6E7FF23E4E700BFBD
:10057000F043000038B50D460446D8B101281CD020
:1005800002281CD003280CBF0F230023EB40DB07FD
:1005900004D44FF482610B4800F090F83020012120
:1005A00041F21003604300F18040A94000F5703033
:1005B000C15038BD40F2FF13E8E71F23E6E7FF23F1
:1005C000E4E700BFF043000010B5044601213A20E3
:1005D00000F0E2F9A3782078B3FA83F304225B09F0
:1005E000617801F029F8002010BD034659789B7806
:1005F00000780BB9FFF794BFFFF7BCBF03465978EB
:100600009B7800780BB9FFF7B5BFFFF789BF0000F3
:1006100038B504784578DCB1012C1CD0022C1CD0F4
:10062000032C0CBF0F220022EA40D30704D440F26F
:100630002B410B4800F042F83023012243F2100115
:10064000634303F18043AA4003F570335A5038BD29
:1006500040F2FF12E8E71F22E6E7FF22E4E700BFCF
:10066000F043000070B5047805464678DCB1012CF3
:100670001CD0022C1CD0032C0CBF0F230023F340F2
:10068000DB0704D440F2FB310A4800F017F83023AE
:100690005C43094B1859AB78F04000F001000BB9EE
:1006A00080F0010070BD40F2FF13E8E71F23E6E78A
:1006B000FF23E4E7F043000010C00340FEE7000022
:1006C000054A1368DB06FCD44FF04023D3F88400BE
:1006D000C0F38110704700BF8440004038B5124B12
:1006E0000546D3F820310C4603F00303022B0BD050
:1006F000032B0DD0012B0FD1FFF7EAFE052305B127
:10070000286004B1237038BDFFF7DCFE0323F6E751
:10071000FFF7E6FE0223F2E7044840F62721FFF741
:10072000CDFF00231846EAE7008000405144000056
:10073000F7B50024114B0194D3F88051074605F01A
:100740000305012D0E4607D0022D11D040F643318E
:100750000B48FFF7B3FF04E0214601A8FFF7BEFFF7
:100760000D240FB1019B3B6006B1347003B0F0BDA6
:10077000FFF7B6FE2C460190F3E700BF0080004073
:100780005144000038B5194B0546D3F824310C46C6
:1007900003F00703013B052B20D8DFE803F0030F2C
:1007A000171B0B13FFF794FE052305B1286004B156
:1007B000237038BDFFF78CFE0623F6E7FFF782FEB5
:1007C0000323F2E7FFF77EFE0423EEE7FFF788FE40
:1007D0000223EAE7FFF782FE0723E6E704484FF427
:1007E000C071FFF76BFF00231846DEE70080004072
:1007F0005144000038B5124B0546D3F840310C4641
:1008000003F00303022B0BD0032B0DD0012B0FD1D0
:10081000FFF76AFE092305B1286004B1237038BDD3
:10082000FFF768FE0823F6E7FFF761FE0A23F2E709
:10083000044840F65521FFF741FF00231846EAE738
:10084000008000405144000038B5154B0546D3F8F0
:1008500000320C4603F00703013B032B18D8DFE8F6
:1008600003F0020A0E12FFF73FFE092305B12860CC
:1008700004B1237038BDFFF73DFE0823F6E7FFF70C
:1008800036FE0A23F2E7FFF707FE0C23800AEDE7A6
:10089000044840F6C631FFF711FF00231846E5E78C
:1008A000008000405144000038B5124B0546D3F893
:1008B00040320C4603F00303022B0BD0032B0DD068
:1008C000012B0FD1FFF710FE092305B1286004B1F9
:1008D000237038BDFFF70EFE0823F6E7FFF707FE8B
:1008E0000A23F2E7044840F68A31FFF7E7FE0023C7
:1008F0001846EAE7008000405144000038B5124B2A
:100900000546D3F860310C4603F00303022B0BD0ED
:10091000032B0DD0012B0FD1FFF7E6FD092305B105
:10092000286004B1237038BDFFF7E4FD0823F6E723
:10093000FFF7DDFD0A23F2E7044840F68321FFF7C5
:10094000BDFE00231846EAE7008000405144000045
:100950000F4B10B4D3F820320A4603F00303012BE7
:100960000ED0022B10D008B1002303600AB100237F
:10097000137040F2A91107485DF8044BFFF79EBEC3
:100980005DF8044BFFF7AABE5DF8044BFFF732BFDA
:10099000008000405144000070B5440905460E46F1
:1009A0000DD1CA210D48FFF789FE05F01F058EB154
:1009B00004F58053012202FA05F51D6070BD012C7B
:1009C00006D0074A074B022C14BF14461C46ECE71E
:1009D000054CEAE704F50053ECE700BF5144000082
:1009E000608200406880004064800040B0F5007F75
:1009F00010B52FD005D8D0B1B0F5C07F17D00024E6
:100A000026E0B0F5207F2BD0B0F5607FF7D1174BF3
:100A1000D3F88040C4F30114012C19D9032C17D04A
:100A200040F263411248FFF749FE022410E00F4BE9
:100A30001C6FC4F30334012C0AD9032C08D0072CF3
:100A400006D00F2C04D040F256410948FFF736FE7D
:100A5000601C10BD054BD3F89040C4F30464F7E765
:100A6000024B1C6FC4F38024F2E700BF00800040FB
:100A700051440000002337B53E280446019300F09E
:100A8000BA8045D82B282BD022D8232816D00FD8AF
:100A900020284CD007D8002849D040F245115848AA
:100AA000FFF70CFE87E0212808D022283FD0F4E78A
:100AB000292800F296802828C0F08980FFF7ECFCF6
:100AC00004464FF42070FFF791FFB4FBF0F071E0A3
:100AD000312810D82F28F1D22D2800F0878056D940
:100AE000FFF7DAFC04464FF42070FFF77FFFB4FBFA
:100AF000F0F040085EE03C2855D83A28DED238288D
:100B00006AD03928C9D1002101A8FFF73BFE52E085
:100B1000B0F5007F52D01BD8522858D00AD84D28A3
:100B200005D002D83F28C9D0B7E74F28B5D3FFF783
:100B3000B3FC3FE080283BD004D8A0F16004012C36
:100B4000F5D9AAE7B0F5807F21D0B0F5C07FADE739
:100B5000B0F5A06F40D010D8B0F5607F2ED006D889
:100B6000B0F5207FAAD0B0F5407FB9D095E7B0F5B9
:100B7000806F2CD0B0F5906FC4E7B0F5D06F35D052
:100B80000AD8B0F5B06F2CD0B0F5C06F85D1002178
:100B900001A8FFF72FFE0EE0B0F5E06F2BD0B0F507
:100BA000F06F7FF47AAF002101A8FFF7A7FE02E003
:100BB000FFF758FC0190019803B030BDFFF752FCDD
:100BC00005462046FFF712FFB5FBF0F0F2E70021E3
:100BD00001A8FFF783FDEEE7002101A8FFF7B8FEAB
:100BE000E9E7002101A8FFF7A3FDE4E7002101A840
:100BF000FFF72AFEDFE7002101A8FFF755FEDAE73D
:100C00005144000008B58020FFF734FF044B9842A0
:100C10009FBF42F270034FF48031024AD15008BDA9
:100C2000005A62020080004070B541F268030E462F
:100C30004FF400310E4A0546D1500020FFF7D6FE92
:100C400041F671320B4B6843DC690B49DA639A68F1
:100C5000884204F4803422F4401203D9012E18BFD4
:100C600042F480129A600CB10022DA6370BD00BFBA
:100C70000080004000000340005A620208B5FFF700
:100C80001DFCBDE808400021FFF7CEBF002307B5DB
:100C9000B0F5807F8DF807300FD02ED82D2800F0CA
:100CA0008A8010D82A283FD005D8243803282FD985
:100CB00040F239516FE02C28FAD10DF107010020E4
:100CC000FFF798FD35E03D2869D007D83828EFD1E7
:100CD0000DF107010020FFF73BFE2AE03E2837D048
:100CE0008028E5D13C4B1B6F03F00703013B032B2E
:100CF0004FD8DFE803F04C48466CB0F5C06FDCD04D
:100D00001CD8B0F5906F50D008D8B0F5806FCFD117
:100D10000DF107010020FFF7E1FC0AE0B0F5A06F3C
:100D2000D6D0B0F5B06FC3D10DF107010020FFF7A9
:100D3000FFFC9DF8070003B05DF804FBB0F5F06F11
:100D40002DD00BD8B0F5D06F35D0B0F5E06FAFD166
:100D50000DF107010020FFF7A7FDEAE7B0F5006FEE
:100D600023D0B0F5086FA3D11B4BD3F8003103F0AB
:100D70000303022B25D0032B27D0012B29D1FFF70A
:100D8000A1FB032300E005238DF80730D1E7022300
:100D9000FAE740F2E6411148FFF790FCC9E70DF190
:100DA00007010020FFF7AAFDC3E70DF107010020AE
:100DB000FFF7E8FCBDE70DF107010020FFF744FD58
:100DC000B7E7FFF797FB0823DEE7FFF787FB07236B
:100DD000DAE70123D8E700BF00800040514400005B
:100DE0000029CCBF01210021FFF71EBFB0F5007F15
:100DF00010B553D00AD818B3B0F5C07F20D0BDE8E5
:100E0000104040F2BC413648FFF758BCB0F5207F97
:100E100056D0B0F5607FF2D14C1E012C06D90429C2
:100E200004D040F2A9412E48FFF748FC2D4AD2F8E1
:100E3000803023F0300343EA0413C2F8803010BD41
:100E4000102901F1FF3404D8274B23FA01F1CB0715
:100E500004D440F28D412248FFF730FCFFF70EFF2B
:100E600000F044F84FF4803141F270031D4AD15034
:100E7000136F23F4704343EA04331367FFF70CFB4B
:100E80000446FFF71DFCC0F102012046FFF7A8FF52
:100E900000F032F8BDE81040FFF7B4BE4C1E1F2C26
:100EA00004D94FF496610E48FFF708FC0D4BD3F8B8
:100EB000901021F0F85141EA0461C3F89010BEE7A8
:100EC0004C1E012C04D940F2B6410548FFF7F6FB51
:100ED000044B196F21F4806141EA84211967AEE760
:100EE00051440000008000401601010002214FF42F
:100EF0002070FFF77BBF000008B54FF4C070FFF70C
:100F0000B9FDBDE80840044988428CBF0221012197
:100F10004FF42070FFF76ABF80F0FA02B0F5807FCF
:100F200070B50C4613D048D82D2800F0588121D830
:100F30002A285FD009D8243803284AD9BDE8704050
:100F400040F2C561BA48FFF7B9BB2C28F6D1092C8D
:100F500000F005810A2C00F0F980082C40F0F880A0
:100F60000222B449D1F8403123F003031343C1F8FE
:100F70004031B7E03D2800F0F48011D83828DDD1A9
:100F80000D2C00F06D810E2C40F063810222A949E6
:100F9000D1F8203223F003031343C1F82032A1E03B
:100FA0003E2847D08028C9D18B1E052B00F2AE8089
:100FB000DFE803F0A999ACB4AC69B0F5C06FC6D056
:100FC0002CD8B0F5906F00F0E7800DD8B0F5806FA9
:100FD000B4D1032C00F0A780052C00F0B580022CC2
:100FE00040F0AB8003229FE0B0F5A06FC8D0B0F511
:100FF000B06FA3D1022C08D00D2C00F0928040F2EB
:10100000AC518B48FFF75AFB00248A4AD2F8803152
:1010100023F003031C43C2F8804163E0B0F5F06F96
:1010200000F09F8019D8B0F5D06F00F0D880B0F5EF
:10103000E06F83D1092C00F01E810A2C00F0128190
:10104000082C40F0118102227A49D1F8403223F075
:1010500003031343C1F8403244E0B0F5006F00F0E1
:101060009B80B0F5086F7FF469AF4C1E072C00F22F
:10107000E780DFE814F0EA00E500EC00E500E500B9
:10108000E500E300D300002504260121022000F042
:101090007DF9FFF7F3FDFFF729FF4FF4803141F2AF
:1010A0007003644AD150136F23F00703334313676F
:1010B000FFF7F2F90646FFF703FBC0F102013046E5
:1010C000FFF78EFE0121002000F0B6F9FFF714FFB4
:1010D000FFF798FD35B9032C04D142F22803012112
:1010E000554AD15070BD41F264034FF40021514A7A
:1010F0000326D15041F2280201214F4B9D6A99509D
:10110000C5F34005C1E700250126BEE7002540F2F2
:101110006A514748FFF7D2FA2E46B6E70025022665
:10112000B3E7012471E702224249D1F8203123F0CC
:1011300003031343C1F82031D4E740F2CD513C48BA
:10114000FFF7BCFA0022EFE70122EDE7032208E7F0
:1011500040F2E6513648FFF7B1FA002201E70122DA
:10116000FFE6092C16D00A2C0BD0082C0BD102223A
:101170003049D1F8603123F003031343C1F86031E3
:10118000B0E70322F4E740F2FE512948FFF796FA50
:101190000022EDE70122EBE7023C052C16D8DFE840
:1011A00004F00D03131C110F02232249D1F824214E
:1011B00022F007021343C1F8243193E70323F4E735
:1011C0000423F2E70523F0E70623EEE740F223616C
:1011D0001748FFF773FA0023E7E70123E5E7083C28
:1011E000042C12D8DFE804F003180D110F000222BE
:1011F0001049D1F8003223F007031343C1F800323D
:1012000070E70322F4E70422F2E74FF4C8610848CC
:10121000FFF754FA0022EBE70122E9E70222054931
:10122000D1F8003123F003031343C1F8003159E72B
:10123000514400000080004000C000400322EEE75F
:1012400040F279610D48FFF739FA0022E7E7012201
:10125000E5E740F2A3610948FFF730FA002296E67D
:10126000012294E60322EFE640F2BC610348FFF757
:1012700025FA0022E8E60122E6E600BF514400001C
:10128000EFF3108072B6704700B962B67047EFF3A3
:10129000108072B67047FFF7F7BF000010B5234B00
:1012A00070B9186041F264014FF40030204A505088
:1012B00020494968012902D1D2F800211A6010BDE5
:1012C0001B68002BFBD01B4C6268012AF7D0184A20
:1012D0008020C2F80031FFF7D9FC052820D14FF457
:1012E000C070FFF783FB0128044604D102214FF4AC
:1012F000C070FFF77BFD42F2100207210D4B9950A1
:1013000041F20402012199501A69D207FCD5012C3F
:10131000D5D12146BDE810404FF4C070FFF766BD3F
:1013200041F204030122E250C9E700BFD0100020BF
:101330000080004000C0014010B5044610B10020FC
:10134000FFF7ACFF0C4A136943F00403136100F08C
:101350005DFDFFF795FF02F0EBFFFFF795FF00F053
:1013600067FD24B1BDE810400120FFF797BFBDE83D
:101370001040FFF791B800BF00ED00E0FFF7DCBFC1
:101380000020FFF78BBF0120FFF788BF2DE9F04158
:101390000546254A1368D806FCD44FF04023D3F8FD
:1013A0008430C3F381139D423CD0FFF75BF8012DDD
:1013B00006460BD11D4B984204D940F2BD511C4842
:1013C000FFF77CF901213046FFF70AFDFFF758FFD0
:1013D0004FF00072174B4FF040241A604FF48063B7
:1013E00007466A1E9340DFF848802367636E9A01C0
:1013F00003D4D4F884309B060AD53846FFF744FF5F
:10140000022D0FD13046BDE8F0410021FFF7E8BCC6
:10141000D4F884309906E9D540F2CA514046FFF726
:101420004DF9E3E7BDE8F08184400040005A6202D4
:10143000804400006460004010B50C4608B9FFF716
:1014400011F8074B21461B783BB1064B984204D854
:101450000120BDE81040FFF799BF0220F9E700BF67
:10146000D4100020005A62020278034B01210020B0
:101470001A70FFF7E1BF00BFD41000204FF04022E8
:10148000536F417823F4407343EA01235367704755
:101490004FF04022D36E017923F030030B43D36623
:1014A0007047000041F264034FF00041164A10B546
:1014B000D15041F2040101224AF6CD34134B5A5067
:1014C000596C1C6478B942F208001A50DA6AD007E5
:1014D000FCD542F2040201209850012902BF0B4BB7
:1014E0000B4A1A6410BDDA6A1207FCD442F22402D5
:1014F0002020985041F2080201209850034A536A74
:101500009B06FCD5E9E700BF008000400040094091
:101510003254FFFF38B54FF0004141F26403194ADD
:10152000194CD150012241F20403E2504AF6CD3366
:10153000656C23644378934013434FF04022D36398
:10154000A368827823F0740343EA0213C278002A66
:1015500014BF042200221343A3600279837943EA73
:10156000022323614279C379007843EA022363614D
:10157000FFF798FF012D08BF044B4FF0010008BF93
:10158000236438BD00800040004009403254FFFF12
:1015900038B50D460446D8B101281CD002281CD00D
:1015A00003280CBF0F230023EB40DB0704D44FF4C8
:1015B00082610B48FFF782F83020012141F21003CD
:1015C000604300F18040A94000F57030C15038BD43
:1015D00040F2FF13E8E71F23E6E7FF23E4E700BF3D
:1015E000F043000038B50D460446D8B101281CD0A0
:1015F00002281CD003280CBF0F230023EB40DB077D
:1016000004D440F2E1310B48FFF758F830200121B3
:1016100042F21003604300F18040A94000F57030B1
:10162000C15038BD40F2FF13E8E71F23E6E7FF2370
:10163000E4E700BFF0430000F8B50C4615461E462F
:10164000074678B3012830D0022830D0032814BFD1
:1016500000230F23E340DB0704D44FF48B712048B1
:10166000FFF72CF825B12146384616B3FFF790FF57
:1016700030237B43072C03F1804303F570331BD8E1
:101680000F205A68A100884022EA000205FA01F101
:101690000A435A6015BB21463846DEB1BDE8F84022
:1016A000FFF776BF40F2FF13D4E71F23D2E7FF23F3
:1016B000D0E7FFF797FFDBE70F2004F18042083AFD
:1016C000D9689200904021EA000105FA02F20A432B
:1016D000DA60DFE7BDE8F840FFF784BFF8BD00BF80
:1016E000AF4400004FF090435A6812B19A6A002A42
:1016F000FAD17047022838B505460C4603D94C216B
:101700000C48FEF7DBFFE378627821785B0143EA5F
:10171000820322790B4343EA02130C226A4302F14B
:1017200090421363012902BFA278034B43F825209E
:1017300038BD00BFDF440000E880034008B54FF02B
:1017400090435A6802B960B15B680BB1FFF7CAFFFA
:101750004FF0904130B10120074B1860FFF7C2FFF6
:10176000C86008BDFFF7BEFF0223CB60FFF7BAFFDA
:101770000122024B1A60F4E70410004804200048DC
:101780004FF090435B6870B50BB1FFF7ABFF0121E1
:10179000104B0679196083784578002BC37814BF05
:1017A00002240024002B14BF042200224379DB0012
:1017B00043EA06132B43234313434FF090429360B5
:1017C000054B19600378002B14BF0B460223D3602E
:1017D00070BD00BF04200048041000480B4B984225
:1017E00011D003F5804398420DD003F58043984211
:1017F00009D003F58043984205D003F58043C31A0E
:101800005842584170470120704700BF0080044093
:10181000036BDA0702D503695B06F9D47047000051
:1018200038B505460C46FFF7D9FF18B99A21274865
:10183000FEF744FF2846FFF7EBFF012242F2300398
:10184000EA50237961881B0243EA8143617A0B43A2
:101850006178002914BF402100210B43A17A00299F
:1018600014BF802100210B43E17A002914BF2021FD
:1018700000210B43217B002914BF102100210B43C1
:10188000617B002914BF082100210B43A1790029A5
:1018900014BF4FF4803100210B436B6041F23003E1
:1018A000EA5022780AB90223EB600023E1796B62E7
:1018B000237A43EA81036179002914BF10210021B2
:1018C0000B43AB600AB10123EB6038BD0F4500004C
:1018D00007B56B46054A1068516803C36846FFF7B1
:1018E00019FE002003B05DF804FB00BF4045000076
:1018F0004FF0402213B50024536F684643F00103B4
:10190000536700948DF80440FFF7C2FD204602B0F3
:1019100010BD0000034B1B78002B14BF01200220D8
:10192000704700BF00110020F8B506460F46032996
:101930000ED8DFE801F01402090B0424032E1FD88F
:10194000DFE806F00F15181B1024F7E74024F5E731
:101950004FF412711248FEF7B1FE0024EEE70124A5
:10196000ECE744F002040F4B1D687DB9F8BD44F06C
:101970000804F8E744F02004F5E744F08004F2E7B7
:1019800040F25D210648FEF799FEECE76B681A68A5
:10199000144203D05B683946304698472D68E4E727
:1019A00048450000FC10002038B50B4C227852B19D
:1019B0000A4D2B781BB100F06DFA00232B7000F05C
:1019C000BBFA00232370064C01212078FFF7ACFFFF
:1019D0000123237038BD00BFFA100020F81000204A
:1019E000F010002070B5FFF74BFC114E0546337820
:1019F000CBB900F08DFB044620B12846FFF744FC2C
:101A0000204670BD00F07EFC0A4B186000F048F9DB
:101A10000948FEF775FD094B1C6000F0B9FA084B48
:101A20001860012333702846FFF72EFC0024E7E7F7
:101A3000F910002004110020FC10002008110020E3
:101A4000F4100020F8B5451EEBB2012B0E4604D968
:101A50004FF48F711F48FEF731FEFFF711FC1E4C4B
:101A60000746635DFF2B05D126B14FF491711948EC
:101A7000FEF724FE635D2BB926B94FF49271154829
:101A8000FEF71CFE002E14BF0122FF22635D1344EB
:101A90006355124C2278012A17D9FFF73BFF824287
:101AA000064612D90E4D2B781BB100F0F3F9002336
:101AB0002B700C4D2B781BB100F03EFA00232B70DD
:101AC00031462078FFF730FF26703846BDE8F840F1
:101AD000FFF7DABB4845000000110020F01000209D
:101AE000F8100020FA1000201FB503283BD8DFE8CB
:101AF00000F0020C0E0E1F4C237833B11E4A002159
:101B00000120FFF79FFF0023237004B010BD03A93D
:101B1000002000F0B7FB0028F7D1184B039A1B6890
:101B20009A4208D80121144A0846FFF78BFF012288
:101B3000104B1A70E9E7124B1C6800F02DFA2418BC
:101B400004D540F292210F48FEF7B8FD03998C426C
:101B5000E8D200230222091BCDE900320A480B4AD1
:101B600000F036FBD1E740F2A5210648FEF7A6FDBE
:101B7000CBE700BF0311002040430000F410002019
:101B80000811002048450000D8100020A9190000C5
:101B9000054B1B685843054B00F5742000F23F20AD
:101BA000B0FBF3F0704700BF0411002040420F006B
:101BB0002DE9F843FFF764FB054602F0C9F9002858
:101BC0005BD0304FDFF8D4903E4699F8003033B107
:101BD0002D4A1378013B1370002389F80030FFF77A
:101BE00099FEFFF781FFFFF795FE0128044604D90F
:101BF000264B1B780BB900F007F93878A04203D0C8
:101C00002146FFF791FE3C70012C0CD91F4C237824
:101C10004BB91F4B1B7823B900F036F901221D4B3D
:101C20001A7001232370307800F096F900E000BFAD
:101C30002846FFF729FBFFF723FB0546164800F06F
:101C40009FFA02F08CF980460028BED10F4C227812
:101C500052B1104F3B781BB100F01CF987F800809F
:101C600000F06AF9002323700020FFF73DFF0021F8
:101C70003078FFF759FE002333702846BDE8F8435B
:101C8000FFF702BBF010002000110020FA10002026
:101C900002110020F8100020D810002003110020AD
:101CA000F7B50024022302A800F8084D8DF805308E
:101CB0008DF804404FF40025FFF7D6FB8DF8054062
:101CC00041F2640401A8FFF7D9FB444A444B116F69
:101CD00001F007011960D2F82031D2F82401155122
:101CE0004FF40035155102F5A03292693D4C02F0D7
:101CF00002050329C2F3400200F0070022705ED003
:101D000003F003039E1E73427341022808BF43F091
:101D10000103354A13704DB143B9304BD3F800314C
:101D200003F00303591E4B424B4113704FF41670DE
:101D3000FFF72EFF00222D4B2D4D18602D4B1968FB
:101D400045F8220001320A2AFAD100EBC002084409
:101D5000104418602378284C1BB3204BD3F8003173
:101D600003F00303022B2CD0032B2DD0012B2ED1FB
:101D7000FEF7A8FB0027214B0246DB68461EC3F393
:101D80000B0301331E4803EB8301E0FB01670023D3
:101D90003046394602F0E6F8FFF7FAFE23681844A9
:101DA00020602320FFF7F4FE23681844206064209D
:101DB000FFF7EEFE23681844206003B0F0BD012356
:101DC000A3E7FEF797FBD5E7FEF788FBD2E70D48C0
:101DD000DE21FEF773FC0020CCE700BF008000404E
:101DE00044360020441100204711002040110020FB
:101DF00014110020101100204811002000C00140E3
:101E000040420F0091450000FFF7BABA064B1A781E
:101E100042B100221A70054A136F23F0070343F002
:101E200001031367704700BF451100200080004088
:101E300008B5104B1B78DBB1022000F09BFBB8B15A
:101E400000F04EFAA0B10C4B9A6DD20302D5DB6DB7
:101E50009B070DD40122094B1A7000F047FA084B7A
:101E6000084A1860136F23F0070343F00303136756
:101E700008BD00BF4711002000C0004046110020EF
:101E80000C110020008000400122014B1A707047A5
:101E900045110020F8B51F4B1B78002B38D01E4C85
:101EA00023788BB91D4B9A6DD20302D5DB6D9B074E
:101EB0002ED400F01BFA1A4B1A4A1860136F23F045
:101EC000070343F00303136700F010FA144B164D99
:101ED0001B68164EC01A2B78154F56F8232046F86B
:101EE0002300111A3A681348521A0A213A6009323B
:101EF000B2FBF1F20133DBB20260B3FBF1F201FBA2
:101F000012332B7000232370BDE8F840FEF7C4BAEB
:101F1000F8BD00BF471100204611002000C000405E
:101F20000C110020008000403C1100201411002002
:101F3000101100204011002008B5FFF724FA044AD0
:101F40000449136F096823F007030B43136708BDA7
:101F5000008000404436002002280AD003280BD01D
:101F600001280CD1084A136923F00403136130BF20
:101F700070470020FFF7E0B90020FFF7FFB940F2FB
:101F80008F110248FEF79ABB00ED00E0914500007A
:101F90004FF4C870FFF7FCBD044B1B680BB103EB9B
:101FA000D303034A10681844704700BF4011002053
:101FB00048110020104A30B5136841611546ABB98D
:101FC0001060836011E0091B9C6841611A467CB176
:101FD00023465C698C42F6D9002CF4D052B1906053
:101FE000836013B15A69511A596130BD0022F0E77C
:101FF0002346F4E72860F3E76411002010B500F0F1
:1020000059FA094B094A196831B11368C41A4B6966
:10201000A34203D31B1B4B61106003E0C01A0023D3
:1020200010604B6110BD00BF6411002050110020F2
:1020300038B50F4D02202B685C690E4B1B681C44A1
:1020400000F074FA204600F041FA00230A492A6899
:102050000B70D088800702D501230B7038BD9268C1
:10206000002AFBD050690344012BF2D9F6E700BFE8
:1020700064110020501100205811002070B59DF807
:102080001450164605710025049A8560BDF8185055
:102090000446C5800260C0E903360D4629B9616176
:1020A0000BB11146984796B13546FFF7F0F8064652
:1020B000FFF7A4FF29462046FFF77CFF054B1B686E
:1020C000A34201D1FFF7B4FF3046FFF7E4F8002048
:1020D00070BD00BF6411002000210C4A13687BB161
:1020E00083420AD1836879B18B6083681BB15A69D6
:1020F00041690A445A610020704719469B68EEE71F
:102100000028EFD0022070471360EEE76411002032
:1021100070B5FFF7BCF8134D06462C78D4B9124BB6
:102120001C60124B1C60124B1C8000F07FF90120D8
:1021300000F0FCF900F048FA0E4B0246186070B14E
:1021400023460D4840F2E73101F00CFF0B4B1860BD
:1021500001232B703046FFF79EF8002070BD23202E
:10216000FCE700BF4C11002064110020501100203A
:102170005A1100206011002018FCFFFF54110020AC
:102180002DE9F0410546F8B1FFF781F80F4F0646FB
:10219000FFF734FF2846D7F80080FFF79DFF04467D
:1021A00028B13046FFF777F82046BDE8F081A84512
:1021B0003B6803D123B1FFF73BFFF2E7002BF0D1DF
:1021C000022000F0BFF9ECE72224EDE764110020C3
:1021D000F0B50D4685B016461F46044680B1FFF7A0
:1021E000CFFFBDF82C30002202939DF828302946FD
:1021F000CDE9007320463346FFF740FF05B0F0BD40
:102200002220FBE738B50C46054698B191B1002372
:102210000B70FFF73CF80121074B1B680BB12278CC
:102220001AB1FFF738F8002038BD9D420CBF21706D
:102230009B68F3E72220F7E764110020F0B51F4602
:10224000002387B00D4616468DF817300446A0B11E
:102250000DF11701FFF7D6FF9DF817207AB9BDF8E9
:102260003430294602939DF830302046CDE9007382
:102270003346FFF703FF07B0F0BD2220FBE7032042
:10228000F9E70000F8B507460E46FFF700F800240E
:102290000546114B1B6823B92846FEF7FCFF1B209F
:1022A00015E05A691444DA88BA4213D100F002F9F1
:1022B0000A4F3B68C01AA0420AD200F0FBF83B6804
:1022C000C01A201A30602846FEF7E5FF0020F8BD4E
:1022D0000020F7E79B68DEE7641100205011002022
:1022E000014B1878704700BF5811002038B5FEF731
:1022F000CEFF054600F0DEF804462846FEF7CBFF89
:10230000204638BD014B1868704700BF601100209F
:10231000C2072DE9F84F04460BD53F4A1388013315
:102320009BB21380FFF76AFE3C4B1B680BB1FFF7B3
:102330007FFEA3076DD500F0BDF8394F00263D683C
:102340008046451BFEF7A3FFB24683463246334B19
:102350001C6814B16369AB4214D9012E314B51D1C1
:10236000D288022A4ED11E70002C4ED06369C7F865
:1023700000805D1B6561FFF75BFE5846BDE8F84FC6
:10238000FEF789BF23462A46C7F800805969914263
:1023900009D8187994F804C0521A844588BF1C469D
:1023A0009B68002BF2D15846FEF775FFD4F814B0A5
:1023B000C4F814A0FEF76BFF81462046FFF78CFEA1
:1023C0004846FEF768FF23694BB1FEF760FF814680
:1023D00021692046FFF7EEFD4846FEF75CFFE36803
:1023E00013B121682046984700F064F8D844A5EB63
:1023F000080581460544FEF74AFF0136834622461A
:10240000C846A4E700221A70AEE7022000F09AF84E
:10241000B3E7BDE8F88F00BF5A1100206411002017
:10242000501100205C110020002070471FB50024CF
:102430001D4B012118689A88029053F8060FADF8D9
:102440000C201B7900903E208DF80430FEF7A4FA92
:102450008DF80840FFF7E8FF8DF80C0002A8FFF7A1
:102460008FF9694601208DF80040FFF743F94FF0DE
:10247000904340F2FF319A6922F47F7222F0030206
:102480009A610A4A11609A6A12F00802FBD11A6234
:102490000120FFF753F94FF48052054BC3F8802118
:1024A0001A6004B010BD00BFE145000014200048D0
:1024B00000E100E04FF090439A6A1207FCD4186ADA
:1024C00070474FF09043186C7047000010B50246FB
:1024D0004FF09044A36A1907FCD4216AFFF7F1FF7B
:1024E00063695B0604D4431A022B01D888420ED1DB
:1024F000531A012B98BF8A1C4FF09043B2F1FF3F53
:1025000028BF01321A649A6942F040029A61064A71
:1025100013783BB14FF09041CB6B43F00203CB6398
:102520000023137010BD00BF1810002082074FF069
:10253000904200F00103916948BF43F040030B4310
:1025400093617047830700F001020AD50121084B0F
:1025500042F0400219704FF09041CB6B23F003031F
:10256000CB634FF090418B6923EA02038B61704784
:10257000181000204FF0904301285B6904D0022816
:1025800005D1C3F38010704703F0010070470020AD
:102590007047000010B5FEF77AFE4FF090430446F6
:1025A0005B695A06074A03F0010003F0510348BF74
:1025B00040F002001360FFF7ABFE2046BDE810407C
:1025C000FEF769BE1420004808B53E20FEF752FA17
:1025D0000346FFF729FF23FA00F008BD08B5FDF711
:1025E000DDFEFDF705FFFDF705FFFDF705FFBDE883
:1025F0000840FDF702BFFDF7F9BE4FF0FF3200F1D2
:1026000008034360C0E902230361002303607047AD
:1026100000230361704743689A684B608A609A6838
:1026200051609960036808610133036070470A686C
:1026300030B5531C0AD103695A684A6091608B60B7
:102640005960036808610133036030BD00F108037D
:102650005C6825689542EFD82346F9E70369D0E91D
:1026600001128A60826851605968814208BF5A60CD
:1026700000220261186801381860704770B515466D
:10268000026C0446866B42B905689DB9406800F04B
:1026900055FF65600136A66370BD6DB9806801F0B5
:1026A00023FEA368226C13446268A360934201D3A3
:1026B0002368A3600020EDE7C06801F015FE236CDD
:1026C000E2685B4221681A448A42E2603EBF626867
:1026D0009B18E360022DEDD10EB1013EEAE73046D2
:1026E000D8E703461A6C10B408466AB1D9685C682A
:1026F0001144A142D96028BF19685DF8044B28BF76
:10270000D960D96801F0F0BD5DF8044B704770B531
:10271000044601F007FA94F8455004F124066DB21E
:10272000002D14DCFF2384F8453001F01BFA01F082
:10273000F9F994F8445004F110066DB2002D12DC42
:10274000FF2384F84430BDE8704001F00BBA636A9F
:10275000002BE7D0304600F0EBFD08B100F074FE2E
:10276000013D6DB2DCE72369002BE9D0304600F073
:10277000DFFD08B100F068FE013D6DB2DEE700004C
:1027800038B50D46044620B94FF494711948FDF749
:1027900095FF01F0C7F9D4E90F314B432268D018F7
:1027A0005B1A13446060E3600020FF23A063A26013
:1027B00084F8443084F8453095B9236963B104F155
:1027C000100000F0B5FD38B14FF080520A4B1A608E
:1027D000BFF34F8FBFF36F8F01F0C4F9012038BDF5
:1027E00004F11000FFF709FF04F12400FFF705FFD3
:1027F000F2E700BFEC45000004ED00E070B50D46C7
:10280000064620B940F295110B48FDF757FF05FB2E
:1028100006F0483001F09CFA044638B145B9206012
:10282000C4E90F6501212046FFF7AAFF204670BDCD
:1028300000F148030360F3E7EC4500002DE9FF4792
:10284000884601921E46044620B940F2E6214B48D4
:10285000FDF734FFB8F1000F06D1236C23B140F22D
:10286000E7214648FDF72AFF022E07D1E36B012B33
:1028700004D04FF43A714148FDF720FF00F004FE08
:1028800030B9019B23B140F2EB213C48FDF716FF24
:102890000027B946DFF8E8A001F044F9A26BE36B2A
:1028A0009A4201D3022E19D1324641462046FFF703
:1028B000E5FE636A1BB104F1240000F039FD38B174
:1028C0004FF080522E4B1A60BFF34F8FBFF36F8FC4
:1028D00001F048F9012004B0BDE8F087019D1DB961
:1028E00001F040F90020F6E717B902A800F062FDF8
:1028F00001F038F900F00EFB01F014F994F84430BF
:10290000FF2B08BF84F8449094F84530FF2B08BF94
:1029100084F8459001F026F901A902A800F060FDB5
:1029200028BB01F0FFF8A26BE36B9A420ED101F0D5
:1029300019F9019904F1100000F0C0FC2046FFF7DE
:10294000E6FE00F09DFB48B10127A5E701F00AF97A
:102950002046FFF7DCFE00F093FBF5E74FF08053D5
:10296000CAF80030BFF34F8FBFF36F8FECE72046FC
:10297000FFF7CDFE00F084FBB4E700BFEC4500009C
:1029800004ED00E02DE9F843894690461F460446D1
:1029900020B94FF46B712748FDF790FEB9F1000F95
:1029A00006D1236C23B140F2AD312248FDF786FEFB
:1029B000022F07D1E36B012B04D040F2AE311D484A
:1029C000FDF77CFE01F09AF9EFF311864FF06003FA
:1029D00083F31188BFF36F8FBFF34F8FA26BE36B4D
:1029E0009A4201D3022F22D194F845503A466DB253
:1029F00049462046FFF742FE6B1C13D1636A0BB9B0
:102A000001200BE004F1240000F092FC0028F7D034
:102A1000B8F1000FF4D00120C8F8000086F3118847
:102A2000BDE8F88301356DB284F84550E8E7002031
:102A3000F4E700BFEC4500002DE9FF470F46019287
:102A40009946044620B940F2E9415248FDF736FE66
:102A500037B9236C23B140F2EA414E48FDF72EFE10
:102A600000F012FD30B9019B23B140F2ED4149481D
:102A7000FDF724FE0026B046DFF81CA101F052F855
:102A8000A56B55B339462046E668FFF72AFEB9F133
:102A9000000F1BD12368013DA56313B900F09AFD17
:102AA0006060236963B104F1100000F041FC38B1AB
:102AB0004FF08052384B1A60BFF34F8FBFF36F8FC8
:102AC00001F050F8012004B0BDE8F087636AE660C9
:102AD000002BF5D004F12400E7E7019B1BB901F0BE
:102AE00041F80020EFE716B902A800F063FC01F0FE
:102AF00039F800F00FFA01F015F894F84430FF2B84
:102B000008BF84F8448094F84530FF2B08BF84F850
:102B1000458001F027F801A902A800F061FC58BB2C
:102B200001F000F8A36BF3B901F01CF8236833B986
:102B300000F0F8FF606800F0B7FC01F013F80199AD
:102B400004F1240000F0BAFB2046FFF7E0FD00F09E
:102B500097FA78B94FF08053CAF80030BFF34F8F1F
:102B6000BFF36F8F06E000F0FDFF2046FFF7CFFDBB
:102B700000F086FA012681E72046FFF7C8FD00F045
:102B80007FFA00F0CFFFA36B002BA8D000F0EAFF84
:102B9000F0E700BFEC45000004ED00E0002330B595
:102BA000064A52F8335002EBC3041DB942F8331001
:102BB000606030BD01330A2BF3D1FAE748360020BC
:102BC00070B504460D46164600F0ACFF94F844304C
:102BD000FF2B04BF002384F8443094F84530FF2BCA
:102BE00004BF002384F8453000F0BCFFA36B2BB971
:102BF0003246294604F1240000F07AFB2046BDE865
:102C00007040FFF784BD0000094B0A4A1B68126838
:102C1000D06A58B9084A1268012A08D8012B06D888
:102C2000064B1868064B1B68C01A70470020704797
:102C30002812002068110020741100205812002072
:102C4000A0120020064A13681968064B19B94FF004
:102C5000FF321A6070471268D268D2685268F8E78B
:102C60006C11002058120020F8B51B4B1B4E1C683D
:102C7000054630680F460430FFF7F0FC334640B994
:102C800001203168164EC96A3268884022EA000283
:102C900032606A1C07D137B1196812480431BDE8A7
:102CA000F840FFF7B8BC1A686419546007D30E4A9D
:102CB00010681968BDE8F8400431FFF7B8BC0B4A4A
:102CC000106819680431FFF7B2FC094B1A68A24278
:102CD00088BF1C60F8BD00BFA01200206811002052
:102CE0002812002078120020701100206C110020A2
:102CF000581200202DE9F84F4FEA820A80465046CC
:102D00000F4699460B9E01F023F80546002800F077
:102D10009780502001F01CF80446002800F08D80B8
:102D2000AAF1040A056355447B1E25F0070A00F149
:102D30003402093713F8011F02F8011B197809B191
:102D40009F42F7D10A9D4FF0000B072D28BF0725A2
:102D5000271DE562C4E9105B384684F83DB0FFF7F3
:102D600057FCC5F1080504F11800FFF751FCC4F841
:102D700048B02461A561646284F84CB04A4641467B
:102D8000504600F0A1FE206006B1346000F0CAFE9B
:102D9000324B334E1A68DFF8F48001321A6035681E
:102DA000002D50D134601B68012B1FD14FF0140946
:102DB00009FB05800135FFF720FC082DF8D1DFF86D
:102DC000D090284D4846FFF718FC2846FFF715FC21
:102DD0002548FFF712FC2548FFF70FFC2448FFF7B2
:102DE0000CFC244BC3F80090234B1D600125234AA3
:102DF00023491368086801331360E26A05FA02F395
:102E0000034314200B6000FB02803946FFF703FCEC
:102E100000F0A8FE1B4B1B6863B13368DA6AE36AF3
:102E20009A4207D24FF08052174B1A60BFF34F8F70
:102E3000BFF36F8F2846BDE8F88F284600F0B0FF3B
:102E40004FF0FF35F6E70F4B1B68002BCED13368F0
:102E5000E26ADB6A9A4228BF3460C7E71412002096
:102E60006811002040120020601200208C12002007
:102E7000781200206C110020701100202412002014
:102E8000281200207412002004ED00E074110020CC
:102E90002C12002013B50024174B009401938C22B0
:102EA000234616491648FFF725FF012818D100F0E0
:102EB00077FC012814D14FF0600383F31188BFF32E
:102EC0006F8FBFF34F8F4FF0FF320E4B1A600E4BD8
:102ED00018600E4B1C6002B0BDE8104000F0A0BEB0
:102EE000013007D140F29171094802B0BDE81040AD
:102EF000FDF7E4BB02B010BD541200206446000090
:102F0000B53100005812002074120020A0120020D9
:102F100028460000024A136801331360704700BF5F
:102F200020120020014B1868704700BFA01200203B
:102F300038B5084C084A2368126803449342054692
:102F400004D940F67E110548FDF7B8FB20682844F7
:102F5000206038BDA0120020581200202846000032
:102F60002DE9F84F3A4B1B68002B6AD1394B1C688E
:102F700001341C609CB9384D2B681B6823B140F6A6
:102F8000E6113648FDF79AFB354B2A681968296027
:102F90001A60344A136801331360FFF753FE324D51
:102FA0004FF0000B2B68314FA34211D93A68304BD8
:102FB000D16A14224A439A58022A28BF4FF0010BC3
:102FC0002C4A1268002A0CBF58460120BDE8F88F31
:102FD000DFF884A0DFF8A490DAF8002012681AB9AC
:102FE0004FF0FF322A60E1E7DAF80020D268D668B5
:102FF00071688C4201D22960D8E706F10408404686
:10300000FFF72CFBB16A19B106F11800FFF726FB98
:1030100001224FF0140CF06AD9F8003002FA00F1E6
:103020001943134BC9F800100CFB00304146FFF761
:10303000F2FA3868F16AC26A914228BF4FF0010B78
:10304000CAE70D4A4FF0000B136801331360B7E76E
:1030500020120020A01200206C1100202846000041
:10306000701100205C12002058120020681100200E
:1030700074110020A41200201C120020281200202D
:103080002DE9F8432E4C236823B940F2F5712D4801
:10309000FDF714FB00F046FD2368013B2360246824
:1030A0002CB1002400F05EFD2046BDE8F883264BDD
:1030B0001B68002BF5D0254D254EDFF8A8801FE0BA
:1030C000EB680127DC6804F1040904F11800FFF73C
:1030D000C5FA4846FFF7C2FA1420E26A316807FAD7
:1030E00002F30B4300FB028049463360FFF793FA7B
:1030F000184BE26A1B68DB6A9A4201D3164B1F60C9
:103100002B68002BDCD10CB1FFF79CFD134D2C6814
:1031100044B10127104EFFF723FF00B13760013C97
:10312000F9D12C600C4B1B68002BBAD04FF08052A9
:103130000B4B1A60BFF34F8FBFF36F8F0124B1E7C2
:1031400020120020284600001412002060120020E7
:103150002812002068110020A41200201C12002058
:1031600004ED00E07411002010B5044640B94FF0A2
:1031700080520D4B1A60BFF34F8FBFF36F8F10BD9E
:103180000A4B1B6823B140F2DC410948FDF796FA6F
:10319000FFF7C0FE00212046FFF766FDFFF770FF36
:1031A0000028E4D0EBE700BF04ED00E0201200208F
:1031B0002846000070B51E4E1E4C2368CBB9FFF7A1
:1031C00023FD0128F8D9FFF7A5FE1B4B1A681B4BFE
:1031D0001B689A4204D240F699411948FDF76EFAED
:1031E000FFF712FD012801D900F076FEFFF748FF36
:1031F000E2E7FFF78FFE3568FFF742FF002DDCD0D6
:1032000000F090FCF368DD68281DFFF727FA0D4AEF
:103210001368013B13602368013B236000F0A2FCAC
:10322000286B00F0BDFD284600F0BAFDC5E700BFE1
:103230008C1200201812002058120020A01200202A
:10324000284600001412002038B5164B1A68164B99
:1032500012B101221A6038BD1A60144B1C68B4FA0E
:1032600084F41423E4B2C4F11F046343104DEB58FB
:1032700023B940F603310F48FDF720FA142202FB70
:1032800004F3E9184868083340682B44984202FB6D
:10329000045408BF4368486008BF4B606368DA683D
:1032A000054BD7E720120020A4120020281200208E
:1032B00074110020284600006811002038B50D4622
:1032C000044620B940F613310748FDF7F7F9074BDC
:1032D000204619681831FFF7AAF92846BDE838409A
:1032E0000121FFF7C1BC00BF284600006811002083
:1032F00070B50E461446054620B940F63E310A48E0
:10330000FDF7DCF9094B284619681831FFF783F9F6
:10331000002C214608BF3046BDE8704018BF4FF072
:10332000FF30FFF7A1BC00BF284600006811002055
:1033300038B5C368DC6824B940F66E311648FDF72D
:10334000BDF904F118052846FFF788F9134B1B68EF
:10335000F3B9251D2846FFF781F901231049E26AD8
:1033600008689340034314200B6029460D4B00FB73
:103370000230FFF750F90C4BE26A1B68DB6A9A4295
:1033800085BF0120094B00201860FFF75BFC38BDAA
:1033900029460748EDE700BF28460000201200201C
:1033A000281200207411002068110020A4120020AF
:1033B0006012002010B5044620B940F6CE31054811
:1033C000FDF77CF9044B1B682360044B1B686360AA
:1033D00010BD00BF284600005C120020A012002093
:1033E00070B50D46044620B940F6D8311348FDF7B4
:1033F00065F925B940F6D9311048FDF75FF900F0BD
:1034000091FB0F4B19682B685A1C10D00D4A10689D
:10341000D4E90062864201D091420DD2881A8342DB
:103420000AD95B1A13442B602046FFF7C3FF002420
:1034300000F098FB204670BD0124F9E72846000003
:10344000A01200205C1200200122014B1A6070477C
:10345000A4120020084B186860B9084B1B6853B9C8
:10346000074B084A1B681068013B984214BF0120B3
:10347000022070470020704760120020A412002034
:103480001412002078120020054B1B6833B1054B45
:103490001B68002B0CBF02200020704701207047E2
:1034A00074120020201200202DE9F041044600286B
:1034B0002FD01F4DC36A2A68D26A934229D214279B
:1034C00082691C4E002AA8BF2A6807FB0363A2BFBB
:1034D000D26AC2F10802826142699A4216D100F1B1
:1034E00004084046FFF7BAF8134AA0B12B681168E8
:1034F000D86A012383400B4313601423E0624146E2
:1035000003FB0060BDE8F041FFF785B82B68DB6A7C
:10351000C362BDE8F081E06A4743F359002BE5D16F
:1035200001211368814023EA01031360DEE700BF35
:10353000681100207411002028120020F8B50446FC
:1035400008B90020F8BD1F4B1B68834204D040F629
:10355000D4611D48FDF7B2F8636C23B940F6D6611B
:103560001948FDF7ABF8636CE16A226C013B9142AC
:103570006364E6D0002BE4D1251D2846FFF76EF8E2
:10358000124E134A50B91421E76A794373582BB984
:1035900001201368B84023EA00031360236CC3F1D1
:1035A0000801A161E3620124116804FA03F00843F1
:1035B00010601420294600FB0360FFF72CF820461A
:1035C000C0E700BF681100202846000074110020E9
:1035D00028120020044B1A681AB119684A6C01328B
:1035E0004A641868704700BF6811002070B5164C17
:1035F00006460D4600F096FA23689B6C7BB90121C4
:10360000236883F84C1055B12846FFF72DFB4FF087
:1036100080520E4B1A60BFF34F8FBFF36F8F00F0D5
:10362000A1FA00F07FFA23689D6C1DB123684EB1AA
:1036300000229A640022236883F84C2000F092FA5A
:10364000284670BD6A1EF4E76811002004ED00E012
:10365000F8B50D46044620B941F2F0112448FDF7B3
:103660002DF800F04BFBEFF311864FF0600383F36E
:103670001188BFF36F8FBFF34F8F022394F84C2054
:1036800084F84C30A36C012A03F10103A36424D114
:10369000A36A23B141F216211548FDF70FF8154B27
:1036A0001B68EBB9271D3846FEF7D8FF01231249E6
:1036B000E26A08689340034314200B6039460F4BBD
:1036C00000FB0230FEF7A7FF0D4BE26A1B68DB6AC6
:1036D0009A4202D901233DB12B6086F31188F8BDCF
:1036E00004F118010748EDE7074A1360F5E700BF4A
:1036F000284600002012002028120020741100200B
:103700006811002060120020A4120020F8B50F4CB0
:1037100000F008FA2568ADB90D4F0E4E3846FEF799
:103720006CFF3046FEF769FF0B4B2A461F600B4BC0
:103730000C210A201E60FFF761F8206010B10849D3
:10374000FFF72CFABDE8F84000F00CBADC120020BC
:10375000B0120020C4120020A8120020AC120020D9
:1037600069460000914208B5416000610AD8D21A4A
:1037700083699A420DD2084B011D1868FEF757FF66
:10378000002008BD9A4201D2994202D2011D034B8A
:10379000F3E70120F5E700BFAC120020A8120020DB
:1037A00007B5FFF7B3FF0C4B1B6843B90B484FF449
:1037B000A071FCF783FF002003B05DF804FB084B09
:1037C0008C22019307230749009307480023FFF742
:1037D00091FA0028EAD0EFE7DC1200206E460000E4
:1037E000E0120020AB460000C13800002DE9FF4187
:1037F0000D4690461F46064620B940F2B3110F48C9
:10380000FCF75CFF0E4C206878B1052DCDE901581E
:1038100003960DDCFFF738FE002302280CBF0A9A3E
:103820001A4601A92068FFF709F804B0BDE8F08145
:1038300000233A4601A9FFF7A5F8F6E76E46000017
:10384000DC1200202DE9F74300271A4DDFF86C80C9
:103850002B681A6832B9184A11681360296003B0DE
:10386000BDE8F083DB68DC681E6804F104094846A3
:10387000FEF7F4FE636A20469847E369012BE7D11F
:10388000A36933449E4206D2636024614946286896
:10389000FEF7CDFEDCE700230097324619462046AE
:1038A000FFF7A4FF0028D3D140F29F314046FCF738
:1038B00005FFCDE7A8120020AC1200206E460000E4
:1038C0002DE9F04F614E624DB24689B032681368FF
:1038D000002B43D0D268D2F800B00393FFF71AFB55
:1038E000FFF720FB5B4C81462268A04690425A4F6E
:1038F000039B35D2FFF7A6FFC4F80090FFF7C0FB8B
:10390000002305A91A463868FFF796F80028DDD08D
:10391000059B002BF4DB079C636913B1201DFEF7A8
:103920009DFEFFF7FFFAD8F800308346984201D297
:10393000FFF788FF059BC8F800B0092BE0D80122EB
:1039400002FA03F313F4047970D113F0C70F4AD1CC
:103950009B06D5D5204600F023FAD1E79B46BCE76D
:10396000206033B383453CD8FFF78AFBDAF8003098
:10397000DB68DC68201DFEF771FEE369012B14D1C2
:10398000A1695B464A4659442046FFF7EBFE60B109
:1039900000235A46009319462046FFF727FF20B917
:1039A00040F215212846FCF789FE636A20469847B5
:1039B000A6E72A4B1B681A68B2FA82F25209ABEBEF
:1039C00009013868FFF7FCF8FFF75AFB002897D188
:1039D0004FF08052224B1A60BFF34F8FBFF36F8FAF
:1039E0008EE70022EBE7A169069B5A461944204660
:1039F000FFF7B8FE002883D0636A20469847E36942
:103A0000012B7FF47DAFA2690699CDF800900A449E
:103A10004B4649462046FFF7E9FE00287FF470AF89
:103A200040F22E312846FCF749FE69E7069BA36168
:103A300023B940F245312846FCF740FEA1695B46B8
:103A40005A4659442046FFF78DFE59E7A812002038
:103A50006E460000D8120020DC120020AC120020BC
:103A600004ED00E006480068006880F3088862B64C
:103A700061B6BFF34F8FBFF36F8F00DF00BF000051
:103A800008ED00E0DFF80C00016841F4700101600E
:103A90007047000088ED00E008B5094B1B68013352
:103AA00004D04FF48C710748FCF708FE4FF0600318
:103AB00083F31188BFF36F8FBFF34F8FFEE700BF13
:103AC0001C100020B34600004FF0807340F8043C07
:103AD000074B21F0010140F80C3C6FF0020340F865
:103AE000081C40F8202C40F8243C4438704700BFA4
:103AF000993A0000000000000000000000000000F3
:103B0000074B19680868B0E8F04F80F30988BFF3E5
:103B10006F8F4FF0000080F311887047AFF3008083
:103B2000681100204FF0600383F31188BFF36F8F9B
:103B3000BFF34F8F084A13680133012B136009D17B
:103B4000064B1B6813F0FF0F04D04FF4D8710448E4
:103B5000FCF7B4BD704700BF1C10002004ED00E06E
:103B6000B346000010B5074C236823B940F2B711E3
:103B70000548FCF7A3FD2368013B23600BB983F3E1
:103B8000118810BD1C100020B3460000000000008A
:103B9000EFF30980BFF36F8F154B1A681EF0100FFB
:103BA00008BF20ED108A20E9F04F10604DF8043D69
:103BB0004FF0600080F31188BFF34F8FBFF36F8F1A
:103BC000FFF742FB4FF0000080F3118808BC196832
:103BD0000868B0E8F04F1EF0100F08BFB0EC108A74
:103BE00080F30988BFF36F8F704700BFAFF3008089
:103BF0006811002008B54FF0600383F31188BFF30C
:103C00006F8FBFF34F8FFFF7ABF918B14FF08052B2
:103C1000024B1A60002383F3118808BD04ED00E015
:103C200013B52C4C2C4A2168914204D14FF4A77152
:103C30002A48FCF743FD2268294B9A4204D140F2FE
:103C40004F112648FCF73AFD264B00211A78D2B2D4
:103C50000192FF221A701B78234ADBB28DF80330E1
:103C60009DF8033003F06003137007221F4B1A60A6
:103C70009DF80300541E000623D401B11A601A688F
:103C8000120202F4E0621A60019B164ADBB2137062
:103C9000174B1A6842F47F021A601A6842F07F429A
:103CA0001A6000F0F1F80022124B1A60FFF7EAFEEA
:103CB000114A136843F040431360FFF7D3FEFFF748
:103CC000EBFE9DF8032001215200D2B28DF80320B3
:103CD0002246CDE700ED00E071C20F41B34600007F
:103CE00070C20F4100E400E0E4120020E81200205E
:103CF00020ED00E01C10002034EF00E008B5EFF3E9
:103D000005830F2B0AD90D4A9B5C0D4A12789A4203
:103D100004D940F2F3210B48FCF7D0FC0A4B0B4AC4
:103D20001B68126803F4E063934206D9BDE80840BB
:103D300040F203310348FCF7C1BC08BDF0E300E0EA
:103D4000E4120020B34600000CED00E0E812002071
:103D500038B5044643071CBF20F007040834FFF7BA
:103D6000D9F80C4B1A681AB90B4A22F007021A60EC
:103D700042F21F3009490A681444844208D8A2421A
:103D800006D21D680C601544FFF77AF9284638BD45
:103D90000025F9E7EC120020F81200201836002068
:103DA00018B1B8210148FCF789BC704704470000EE
:103DB00013B50446FEF79AFA114B1968114B8C4261
:103DC00028BF0C461968104B61431B68C21A8A420F
:103DD00038BFC9184FF0000334BF091A0121CDE9DB
:103DE00000330A4A0A48FEF729FA30B1B2210948DD
:103DF00002B0BDE81040FCF761BC02B010BD00BFCE
:103E0000283600202436002020360020193E0000ED
:103E10002C36002052470000F8B5FEF767FA074637
:103E20004FF0600383F31188BFF36F8FBFF34F8FA1
:103E3000114B1C7874B9114D114E2B683268FB1A66
:103E400093420BD81CB14FF080520E4B1A600120E8
:103E5000FFF7AEFF002383F31188F8BDFFF780F86A
:103E6000326854EA00032B6818BF0124134408BFCA
:103E700000242B60E1E700BF1C3600202036002024
:103E80002436002004ED00E010B5FEF73BFAB0F553
:103E9000806F044603D23C210B48FCF70FFC0B4B10
:103EA00004F2FF34A40A1C604FF0FF33B3FBF4F4B8
:103EB000074B0A3C1C60FEF719FABDE81040054BA1
:103EC00018600120FFF774BF52470000243600201D
:103ED0002836002020360020F8B504460125184E6B
:103EE000184F30463D70FEF74BF92046FFF760FF54
:103EF000FDF75EFE4FF0600383F31188BFF36F8F11
:103F0000BFF34F8FFEF7F2F90F4A104B11681B6891
:103F1000401AB0FBF3F0A04228BF204600FB031379
:103F20000024136084F31188FFF702F830463C70D8
:103F3000FEF726F92846BDE8F840FFF739BF00BF75
:103F40002C3600201C36002020360020243600208D
:103F500008B5FFF77FFA003018BF012008BD002028
:103F60007047000053B94AB9002908BF00281CBF98
:103F70004FF0FF314FF0FF3000F07CB9ADF1080C8D
:103F80006DE904CE00F006F8DDF804E0DDE9022377
:103F900004B070472DE9F0478C46089D04468A46D8
:103FA000002B4AD18A42174662D9B2FA82F64EB144
:103FB000C6F1200E01FA06F3B740B44020FA0EFE17
:103FC0004EEA030A4FEA1748230C1FFA87F9BAFB97
:103FD000F8FE08FB1EAA0EFB09F243EA0A439A42C6
:103FE0000BD9FB180EF1FF312CBF012000209A42A3
:103FF00002D9002800F02A818E469A1AA3B2B2FB99
:10400000F8F008FB102200FB09F943EA0244A1453D
:1040100007D93C1900F1FF3302D2A14500F210810B
:104020001846A4EB090440EA0E4000211DB1F440FB
:104030000023C5E90043BDE8F0878B4208D9002D75
:1040400000F0F2800021C5E9000C0846BDE8F087C9
:10405000B3FA83F100294ED16345C0F0E880824273
:1040600040F2E5800846002DE5D0C5E9004AE2E7C8
:1040700002B9FFDEB2FA82F6002E40F099808B1A68
:104080004FEA124E1FFA82F801214FEA144CB3FB9B
:10409000FEF20EFB123008FB02F94CEA004CE1453F
:1040A00008D917EB0C0C02F1FF3302D2E14500F204
:1040B000CA801A46ACEB090CA3B2BCFBFEF00EFBA7
:1040C00010CC08FB00F843EA0C44A0450ED93C197B
:1040D00000F1FF332CBF4FF0010C4FF0000CA04556
:1040E00003D9BCF1000F00F0A8801846A4EB080427
:1040F00040EA02409AE7C1F120048B4002FA01FE37
:104100000CFA01F6E24020FA04F72CFA04FC00FA5B
:1041100001F813433E431F0C320C1FFA83F9BCFB1A
:10412000F7F007FB10CC00FB09FA42EA0C4CE24521
:1041300008D913EB0C0C00F1FF3202D2E24500F279
:1041400089801046ACEB0A0CB6B2BCFBF7FA07FB51
:104150001ACC0AFB09F946EA0C42914506D99A188D
:104160000AF1FF3601D291457AD8B2464AEA0040B8
:10417000A2EB0902A0FB0E67BA42B446B94602D3CD
:1041800007D1B04505D2B6EB0E0C67EB030301383F
:104190009946002D6BD0B8EB0C0362EB090202FAD2
:1041A00004F4CB40CA4000211C43C5E9004242E769
:1041B000B740C6F1200201FA06F3B44021FA02FC2E
:1041C0004FEA174E20FA02F21FFA87F8BCFBFEF105
:1041D0001A430EFB11CC01FB08F0130C43EA0C4C04
:1041E000604507D917EB0C0C01F1FF3301D2604594
:1041F00033D81946ACEB000C92B2BCFBFEF00EFBC0
:1042000010CC00FB08F342EA0C4C634507D917EBCE
:104210000C0C00F1FF3201D2634525D81046ACEBFF
:10422000030340EA014130E72946284603E7841AA0
:104230006CEB030301209A4615E702383C4455E72E
:1042400002383C44EDE6023ABC4433E7AEF1020EDC
:104250003B44D2E602389C4474E70239BC44C9E7C7
:10426000AAF1020A1A4481E70238BC44D7E729467A
:10427000E1E600BF704700BF08B5074B044613B125
:10428000002100E000BF054B1868836A03B198471E
:10429000204600F03DF800BF00000000B0470000DD
:1042A00070B50D4E00250D4CA41BA410A54209D1DC
:1042B0000B4E00250B4C00F02DF8A41BA410A542BA
:1042C00005D170BD56F8253001359847EEE756F810
:1042D000253001359847F2E7A4100020A4100020F3
:1042E000A4100020A8100020431E0A4410B59142DB
:1042F00000D110BD11F8014B03F8014FF7E702445C
:104300000346934200D1704703F8011BF9E7000010
:10431000FEE700BFF8B500BFF8BC08BC9E4670477A
:10432000F8B500BFF8BC08BC9E467047000000000E
:1043300001B40248844601BC604700BF81100020E0
:10434000416E6F6E796D6F7573002F686F6D652F9D
:104350006B727A79737A746F662F53696D706C69BA
:104360006369747953747564696F2F76355F776FFD
:10437000726B73706163652F656D7074792F6765FB
:10438000636B6F5F73646B5F332E302E302F706CF6
:104390006174666F726D2F656D6C69622F696E63F3
:1043A0002F656D5F74696D65722E6800626C6B5F5E
:1043B0006C65643100626C6B5F6C65643200000098
:1043C00000100020C9050000EB050000FD050000FD
:1043D000110600006506000003100020C90500005A
:1043E000EB050000FD050000110600006506000059
:1043F0002F686F6D652F6B727A79737A746F662F81
:1044000053696D706C696369747953747564696F0D
:104410002F76355F776F726B73706163652F656D93
:104420007074792F6765636B6F5F73646B5F332E96
:10443000302E302F706C6174666F726D2F656D6CED
:1044400069622F696E632F656D5F6770696F2E6893
:10445000002E2E2F6765636B6F5F73646B5F332E67
:10446000302E302F706C6174666F726D2F656D6CBD
:1044700069622F7372632F656D5F636D752E6300C4
:104480002E2E2F6765636B6F5F73646B5F332E3007
:104490002E302F706C6174666F726D2F656D6C6954
:1044A000622F7372632F656D5F656D752E63002ECD
:1044B0002E2F6765636B6F5F73646B5F332E302ED7
:1044C000302F706C6174666F726D2F656D6C6962F0
:1044D0002F7372632F656D5F6770696F2E63002E97
:1044E0002E2F6765636B6F5F73646B5F332E302EA7
:1044F000302F706C6174666F726D2F656D6C6962C0
:104500002F7372632F656D5F727463632E63002E69
:104510002E2F6765636B6F5F73646B5F332E302E76
:10452000302F706C6174666F726D2F656D6C69628F
:104530002F7372632F656D5F74696D65722E6300F2
:1045400001030401010109032E2E2F6765636B6FC0
:104550005F73646B5F332E302E302F706C61746626
:104560006F726D2F736572766963652F706F7765F3
:10457000725F6D616E616765722F7372632F736C0A
:104580005F706F7765725F6D616E616765722E63D4
:10459000002E2E2F6765636B6F5F73646B5F332E26
:1045A000302E302F706C6174666F726D2F73657270
:1045B000766963652F706F7765725F6D616E616795
:1045C00065722F7372632F736C5F706F7765725FA4
:1045D0006D616E616765725F68616C5F73322E63D7
:1045E0000001000000050002000003002E2E2F67CE
:1045F00065636B6F5F73646B5F332E302E302F7586
:1046000074696C2F74686972645F70617274792F59
:104610006672656572746F732F536F757263652F61
:1046200071756575652E63002E2E2F6765636B6F40
:104630005F73646B5F332E302E302F7574696C2F6F
:1046400074686972645F70617274792F66726565EF
:1046500072746F732F536F757263652F7461736B10
:10466000732E630049444C4500546D7251002E2E48
:104670002F6765636B6F5F73646B5F332E302E3013
:104680002F7574696C2F74686972645F70617274DD
:10469000792F6672656572746F732F536F757263CD
:1046A000652F74696D6572732E6300546D722053AB
:1046B0007663002E2E2F6765636B6F5F73646B5F8D
:1046C000332E302E302F7574696C2F7468697264C4
:1046D0005F70617274792F6672656572746F732F83
:1046E000536F757263652F706F727461626C652FA2
:1046F0004743432F41524D5F434D34462F706F72F5
:10470000742E63002E2E2F6765636B6F5F73646B6F
:104710005F332E302E302F7574696C2F7468697278
:10472000645F70617274792F6672656572746F73FD
:104730002F536F757263652F706F727461626C6551
:104740002F4D656D4D616E672F686561705F312E0D
:1047500063002E2E2F6765636B6F5F73646B5F332F
:104760002E302E302F7574696C2F74686972645FF7
:1047700070617274792F6672656572746F732F53EE
:104780006F757263652F706F727461626C652F5301
:10479000696C69636F6E4C6162732F7469636B5FE0
:1047A000706F7765725F6D616E616765722E630011
:0447B00020100020B5
:0847B400CCB9FF7F01000000F9
:1047BC000100010202010000C0EA2101C0EA21014E
:1047CC0000F049020080000001000000AAAAAAAA79
:1047DC0000000000000000000000000000000000CD
:1047EC0000000000000000000000000000000000BD
:1047FC0000000000000000000000000000000000AD
:10480C00000000000000000000000000000000009C
:10481C00000000000000000000000000000000008C
:10482C00000000000000000000000000000000007C
:10483C0082B030BF064B1B68DB0704D50023019305
:10484C00019B052B01DD02B07047019B0133F6E79C
:0C485C00F0ED00E06501000041010000EB
:040000030000041DD8
:00000001FF
